{
  "_format": "hh-sol-artifact-1",
  "contractName": "NFTMarketplace",
  "sourceName": "contracts/NFTMarketplace.sol",
  "abi": [
    {
      "inputs": [],
      "stateMutability": "nonpayable",
      "type": "constructor"
    },
    {
      "anonymous": false,
      "inputs": [
        {
          "indexed": true,
          "internalType": "address",
          "name": "owner",
          "type": "address"
        },
        {
          "indexed": true,
          "internalType": "address",
          "name": "approved",
          "type": "address"
        },
        {
          "indexed": true,
          "internalType": "uint256",
          "name": "tokenId",
          "type": "uint256"
        }
      ],
      "name": "Approval",
      "type": "event"
    },
    {
      "anonymous": false,
      "inputs": [
        {
          "indexed": true,
          "internalType": "address",
          "name": "owner",
          "type": "address"
        },
        {
          "indexed": true,
          "internalType": "address",
          "name": "operator",
          "type": "address"
        },
        {
          "indexed": false,
          "internalType": "bool",
          "name": "approved",
          "type": "bool"
        }
      ],
      "name": "ApprovalForAll",
      "type": "event"
    },
    {
      "anonymous": false,
      "inputs": [
        {
          "indexed": true,
          "internalType": "address",
          "name": "from",
          "type": "address"
        },
        {
          "indexed": true,
          "internalType": "address",
          "name": "to",
          "type": "address"
        },
        {
          "indexed": true,
          "internalType": "uint256",
          "name": "tokenId",
          "type": "uint256"
        }
      ],
      "name": "Transfer",
      "type": "event"
    },
    {
      "inputs": [
        {
          "internalType": "address",
          "name": "to",
          "type": "address"
        },
        {
          "internalType": "uint256",
          "name": "tokenId",
          "type": "uint256"
        }
      ],
      "name": "approve",
      "outputs": [],
      "stateMutability": "nonpayable",
      "type": "function"
    },
    {
      "inputs": [
        {
          "internalType": "address",
          "name": "owner",
          "type": "address"
        }
      ],
      "name": "balanceOf",
      "outputs": [
        {
          "internalType": "uint256",
          "name": "",
          "type": "uint256"
        }
      ],
      "stateMutability": "view",
      "type": "function"
    },
    {
      "inputs": [
        {
          "internalType": "string",
          "name": "tokenURI",
          "type": "string"
        },
        {
          "internalType": "uint256",
          "name": "price",
          "type": "uint256"
        }
      ],
      "name": "createToken",
      "outputs": [
        {
          "internalType": "uint256",
          "name": "",
          "type": "uint256"
        }
      ],
      "stateMutability": "payable",
      "type": "function"
    },
    {
      "inputs": [
        {
          "internalType": "uint256",
          "name": "tokenId",
          "type": "uint256"
        }
      ],
      "name": "executeSale",
      "outputs": [],
      "stateMutability": "payable",
      "type": "function"
    },
    {
      "inputs": [],
      "name": "getAllNFTs",
      "outputs": [
        {
          "components": [
            {
              "internalType": "uint256",
              "name": "tokenId",
              "type": "uint256"
            },
            {
              "internalType": "address payable",
              "name": "owner",
              "type": "address"
            },
            {
              "internalType": "address payable",
              "name": "seller",
              "type": "address"
            },
            {
              "internalType": "uint256",
              "name": "price",
              "type": "uint256"
            },
            {
              "internalType": "bool",
              "name": "currentlyListed",
              "type": "bool"
            }
          ],
          "internalType": "struct NFTMarketplace.ListedToken[]",
          "name": "",
          "type": "tuple[]"
        }
      ],
      "stateMutability": "view",
      "type": "function"
    },
    {
      "inputs": [
        {
          "internalType": "uint256",
          "name": "tokenId",
          "type": "uint256"
        }
      ],
      "name": "getApproved",
      "outputs": [
        {
          "internalType": "address",
          "name": "",
          "type": "address"
        }
      ],
      "stateMutability": "view",
      "type": "function"
    },
    {
      "inputs": [],
      "name": "getCurrentTokenId",
      "outputs": [
        {
          "internalType": "uint256",
          "name": "",
          "type": "uint256"
        }
      ],
      "stateMutability": "view",
      "type": "function"
    },
    {
      "inputs": [],
      "name": "getLatestIdToListedToken",
      "outputs": [
        {
          "components": [
            {
              "internalType": "uint256",
              "name": "tokenId",
              "type": "uint256"
            },
            {
              "internalType": "address payable",
              "name": "owner",
              "type": "address"
            },
            {
              "internalType": "address payable",
              "name": "seller",
              "type": "address"
            },
            {
              "internalType": "uint256",
              "name": "price",
              "type": "uint256"
            },
            {
              "internalType": "bool",
              "name": "currentlyListed",
              "type": "bool"
            }
          ],
          "internalType": "struct NFTMarketplace.ListedToken",
          "name": "",
          "type": "tuple"
        }
      ],
      "stateMutability": "view",
      "type": "function"
    },
    {
      "inputs": [],
      "name": "getListPrice",
      "outputs": [
        {
          "internalType": "uint256",
          "name": "",
          "type": "uint256"
        }
      ],
      "stateMutability": "view",
      "type": "function"
    },
    {
      "inputs": [
        {
          "internalType": "uint256",
          "name": "tokenId",
          "type": "uint256"
        }
      ],
      "name": "getListedForTokenId",
      "outputs": [
        {
          "components": [
            {
              "internalType": "uint256",
              "name": "tokenId",
              "type": "uint256"
            },
            {
              "internalType": "address payable",
              "name": "owner",
              "type": "address"
            },
            {
              "internalType": "address payable",
              "name": "seller",
              "type": "address"
            },
            {
              "internalType": "uint256",
              "name": "price",
              "type": "uint256"
            },
            {
              "internalType": "bool",
              "name": "currentlyListed",
              "type": "bool"
            }
          ],
          "internalType": "struct NFTMarketplace.ListedToken",
          "name": "",
          "type": "tuple"
        }
      ],
      "stateMutability": "view",
      "type": "function"
    },
    {
      "inputs": [],
      "name": "getMyNFTs",
      "outputs": [
        {
          "components": [
            {
              "internalType": "uint256",
              "name": "tokenId",
              "type": "uint256"
            },
            {
              "internalType": "address payable",
              "name": "owner",
              "type": "address"
            },
            {
              "internalType": "address payable",
              "name": "seller",
              "type": "address"
            },
            {
              "internalType": "uint256",
              "name": "price",
              "type": "uint256"
            },
            {
              "internalType": "bool",
              "name": "currentlyListed",
              "type": "bool"
            }
          ],
          "internalType": "struct NFTMarketplace.ListedToken[]",
          "name": "",
          "type": "tuple[]"
        }
      ],
      "stateMutability": "view",
      "type": "function"
    },
    {
      "inputs": [
        {
          "internalType": "address",
          "name": "owner",
          "type": "address"
        },
        {
          "internalType": "address",
          "name": "operator",
          "type": "address"
        }
      ],
      "name": "isApprovedForAll",
      "outputs": [
        {
          "internalType": "bool",
          "name": "",
          "type": "bool"
        }
      ],
      "stateMutability": "view",
      "type": "function"
    },
    {
      "inputs": [],
      "name": "name",
      "outputs": [
        {
          "internalType": "string",
          "name": "",
          "type": "string"
        }
      ],
      "stateMutability": "view",
      "type": "function"
    },
    {
      "inputs": [
        {
          "internalType": "uint256",
          "name": "tokenId",
          "type": "uint256"
        }
      ],
      "name": "ownerOf",
      "outputs": [
        {
          "internalType": "address",
          "name": "",
          "type": "address"
        }
      ],
      "stateMutability": "view",
      "type": "function"
    },
    {
      "inputs": [
        {
          "internalType": "address",
          "name": "from",
          "type": "address"
        },
        {
          "internalType": "address",
          "name": "to",
          "type": "address"
        },
        {
          "internalType": "uint256",
          "name": "tokenId",
          "type": "uint256"
        }
      ],
      "name": "safeTransferFrom",
      "outputs": [],
      "stateMutability": "nonpayable",
      "type": "function"
    },
    {
      "inputs": [
        {
          "internalType": "address",
          "name": "from",
          "type": "address"
        },
        {
          "internalType": "address",
          "name": "to",
          "type": "address"
        },
        {
          "internalType": "uint256",
          "name": "tokenId",
          "type": "uint256"
        },
        {
          "internalType": "bytes",
          "name": "data",
          "type": "bytes"
        }
      ],
      "name": "safeTransferFrom",
      "outputs": [],
      "stateMutability": "nonpayable",
      "type": "function"
    },
    {
      "inputs": [
        {
          "internalType": "address",
          "name": "operator",
          "type": "address"
        },
        {
          "internalType": "bool",
          "name": "approved",
          "type": "bool"
        }
      ],
      "name": "setApprovalForAll",
      "outputs": [],
      "stateMutability": "nonpayable",
      "type": "function"
    },
    {
      "inputs": [
        {
          "internalType": "bytes4",
          "name": "interfaceId",
          "type": "bytes4"
        }
      ],
      "name": "supportsInterface",
      "outputs": [
        {
          "internalType": "bool",
          "name": "",
          "type": "bool"
        }
      ],
      "stateMutability": "view",
      "type": "function"
    },
    {
      "inputs": [],
      "name": "symbol",
      "outputs": [
        {
          "internalType": "string",
          "name": "",
          "type": "string"
        }
      ],
      "stateMutability": "view",
      "type": "function"
    },
    {
      "inputs": [
        {
          "internalType": "uint256",
          "name": "tokenId",
          "type": "uint256"
        }
      ],
      "name": "tokenURI",
      "outputs": [
        {
          "internalType": "string",
          "name": "",
          "type": "string"
        }
      ],
      "stateMutability": "view",
      "type": "function"
    },
    {
      "inputs": [
        {
          "internalType": "address",
          "name": "from",
          "type": "address"
        },
        {
          "internalType": "address",
          "name": "to",
          "type": "address"
        },
        {
          "internalType": "uint256",
          "name": "tokenId",
          "type": "uint256"
        }
      ],
      "name": "transferFrom",
      "outputs": [],
      "stateMutability": "nonpayable",
      "type": "function"
    },
    {
      "inputs": [
        {
          "internalType": "uint256",
          "name": "_listPrice",
          "type": "uint256"
        }
      ],
      "name": "updateListPrice",
      "outputs": [],
      "stateMutability": "payable",
      "type": "function"
    }
  ],
  "bytecode": "0x6080604052662386f26fc10000600a553480156200001c57600080fd5b50604080518082018252600e81526d4e46544d61726b6574706c61636560901b6020808301918252835180850190945260048452634e46544d60e01b9084015281519192916200006f91600091620000a0565b50805162000085906001906020840190620000a0565b5050600980546001600160a01b031916331790555062000183565b828054620000ae9062000146565b90600052602060002090601f016020900481019282620000d257600085556200011d565b82601f10620000ed57805160ff19168380011785556200011d565b828001600101855582156200011d579182015b828111156200011d57825182559160200191906001019062000100565b506200012b9291506200012f565b5090565b5b808211156200012b576000815560010162000130565b600181811c908216806200015b57607f821691505b602082108114156200017d57634e487b7160e01b600052602260045260246000fd5b50919050565b61201280620001936000396000f3fe6080604052600436106101355760003560e01c806372b3b620116100ab578063b88d4fde1161006f578063b88d4fde1461034d578063c322579c1461036d578063c87b56dd14610380578063d1a88ae5146103a0578063e0391b09146103b5578063e985e9c5146103ca57600080fd5b806372b3b620146102c557806395d89b41146102d857806398c3df16146102ed5780639b1225c41461031a578063a22cb4651461032d57600080fd5b806342842e0e116100fd57806342842e0e1461020b578063561892361461022b578063629cb2e41461024e5780636352211e1461027057806368f1945f1461029057806370a08231146102a557600080fd5b806301ffc9a71461013a57806306fdde031461016f578063081812fc14610191578063095ea7b3146101c957806323b872dd146101eb575b600080fd5b34801561014657600080fd5b5061015a610155366004611c1e565b610413565b60405190151581526020015b60405180910390f35b34801561017b57600080fd5b50610184610465565b6040516101669190611dea565b34801561019d57600080fd5b506101b16101ac366004611cac565b6104f7565b6040516001600160a01b039091168152602001610166565b3480156101d557600080fd5b506101e96101e4366004611bf5565b61051e565b005b3480156101f757600080fd5b506101e9610206366004611b07565b610639565b34801561021757600080fd5b506101e9610226366004611b07565b61066a565b34801561023757600080fd5b50610240610685565b604051908152602001610166565b34801561025a57600080fd5b50610263610695565b6040516101669190611d9c565b34801561027c57600080fd5b506101b161028b366004611cac565b6108da565b34801561029c57600080fd5b50600a54610240565b3480156102b157600080fd5b506102406102c0366004611abb565b61093a565b6102406102d3366004611c56565b6109c0565b3480156102e457600080fd5b50610184610ad0565b3480156102f957600080fd5b5061030d610308366004611cac565b610adf565b6040516101669190611e9d565b6101e9610328366004611cac565b610b49565b34801561033957600080fd5b506101e9610348366004611bbb565b610c96565b34801561035957600080fd5b506101e9610368366004611b42565b610ca5565b6101e961037b366004611cac565b610cd7565b34801561038c57600080fd5b5061018461039b366004611cac565b610d47565b3480156103ac57600080fd5b5061030d610e58565b3480156103c157600080fd5b50610263610ecf565b3480156103d657600080fd5b5061015a6103e5366004611ad5565b6001600160a01b03918216600090815260056020908152604080832093909416825291909152205460ff1690565b60006001600160e01b031982166380ac58cd60e01b148061044457506001600160e01b03198216635b5e139f60e01b145b8061045f57506301ffc9a760e01b6001600160e01b03198316145b92915050565b60606000805461047490611f1a565b80601f01602080910402602001604051908101604052809291908181526020018280546104a090611f1a565b80156104ed5780601f106104c2576101008083540402835291602001916104ed565b820191906000526020600020905b8154815290600101906020018083116104d057829003601f168201915b5050505050905090565b600061050282611016565b506000908152600460205260409020546001600160a01b031690565b6000610529826108da565b9050806001600160a01b0316836001600160a01b0316141561059c5760405162461bcd60e51b815260206004820152602160248201527f4552433732313a20617070726f76616c20746f2063757272656e74206f776e656044820152603960f91b60648201526084015b60405180910390fd5b336001600160a01b03821614806105b857506105b881336103e5565b61062a5760405162461bcd60e51b815260206004820152603e60248201527f4552433732313a20617070726f76652063616c6c6572206973206e6f7420746f60448201527f6b656e206f776e6572206e6f7220617070726f76656420666f7220616c6c00006064820152608401610593565b6106348383611078565b505050565b61064333826110e6565b61065f5760405162461bcd60e51b815260040161059390611e4f565b610634838383611164565b61063483838360405180602001604052806000815250610ca5565b600061069060075490565b905090565b606060006106a260075490565b905060008060005b8381101561073a5733600b60006106c2846001611eab565b81526020810191909152604001600020600101546001600160a01b03161480610715575033600b60006106f6846001611eab565b81526020810191909152604001600020600201546001600160a01b0316145b1561072857610725600184611eab565b92505b8061073281611f55565b9150506106aa565b5060008267ffffffffffffffff81111561076457634e487b7160e01b600052604160045260246000fd5b60405190808252806020026020018201604052801561079d57816020015b61078a611962565b8152602001906001900390816107825790505b50905060005b838110156108d15733600b60006107bb846001611eab565b81526020810191909152604001600020600101546001600160a01b0316148061080e575033600b60006107ef846001611eab565b81526020810191909152604001600020600201546001600160a01b0316145b156108bf576000610820826001611eab565b6000818152600b6020908152604091829020825160a0810184528154815260018201546001600160a01b039081169382019390935260028201549092169282019290925260038201546060820152600482015460ff1615156080820152855192935090918590879081106108a457634e487b7160e01b600052603260045260246000fd5b60209081029190910101526108ba600186611eab565b945050505b806108c981611f55565b9150506107a3565b50949350505050565b6000818152600260205260408120546001600160a01b03168061045f5760405162461bcd60e51b8152602060048201526018602482015277115490cdcc8c4e881a5b9d985b1a59081d1bdad95b88125160421b6044820152606401610593565b60006001600160a01b0382166109a45760405162461bcd60e51b815260206004820152602960248201527f4552433732313a2061646472657373207a65726f206973206e6f7420612076616044820152683634b21037bbb732b960b91b6064820152608401610593565b506001600160a01b031660009081526003602052604090205490565b6000600a543414610a2c5760405162461bcd60e51b815260206004820152603060248201527f596f75206861766520746f2073656e6420746865206578616374206c6973746960448201526f373390383934b1b29030b6b7bab73a1760811b6064820152608401610593565b60008211610a905760405162461bcd60e51b815260206004820152602b60248201527f596f75206861766520746f207365742074686520707269636520657175616c2060448201526a37b91030b137bb3290181760a91b6064820152608401610593565b610a9e600780546001019055565b6000610aa960075490565b9050610ab53382611300565b610abf818561131a565b610ac981846113b4565b9392505050565b60606001805461047490611f1a565b610ae7611962565b506000908152600b6020908152604091829020825160a0810184528154815260018201546001600160a01b03908116938201939093526002820154909216928201929092526003820154606082015260049091015460ff161515608082015290565b6000818152600b6020526040902060030154348114610bbf5760405162461bcd60e51b815260206004820152602c60248201527f596f75206861766520746f2073656e6420746865206578616374204e4654207060448201526b3934b1b29030b6b7bab73a1760a11b6064820152608401610593565b6000828152600b602052604090206002810180546004909201805460ff191660011790556001600160a01b03198216331790556001600160a01b0316610c09600880546001019055565b610c14303385610639565b610c1e308461051e565b600954600a546040516001600160a01b039092169181156108fc0291906000818181858888f19350505050158015610c5a573d6000803e3d6000fd5b506040516001600160a01b038216903480156108fc02916000818181858888f19350505050158015610c90573d6000803e3d6000fd5b50505050565b610ca1338383611451565b5050565b610caf33836110e6565b610ccb5760405162461bcd60e51b815260040161059390611e4f565b610c9084848484611520565b6009546001600160a01b03163314610d425760405162461bcd60e51b815260206004820152602860248201527f4f6e6c79206f776e65722063616e2075706461746520746865206c697374696e6044820152673390383934b1b29760c11b6064820152608401610593565b600a55565b6060610d5282611016565b60008281526006602052604081208054610d6b90611f1a565b80601f0160208091040260200160405190810160405280929190818152602001828054610d9790611f1a565b8015610de45780601f10610db957610100808354040283529160200191610de4565b820191906000526020600020905b815481529060010190602001808311610dc757829003601f168201915b505050505090506000610e0260408051602081019091526000815290565b9050805160001415610e15575092915050565b815115610e47578082604051602001610e2f929190611d30565b60405160208183030381529060405292505050919050565b610e5084611553565b949350505050565b610e60611962565b6000610e6b60075490565b6000908152600b6020908152604091829020825160a0810184528154815260018201546001600160a01b03908116938201939093526002820154909216928201929092526003820154606082015260049091015460ff161515608082015292915050565b60606000610edc60075490565b905060008167ffffffffffffffff811115610f0757634e487b7160e01b600052604160045260246000fd5b604051908082528060200260200182016040528015610f4057816020015b610f2d611962565b815260200190600190039081610f255790505b5090506000805b8381101561100d576000610f5c826001611eab565b6000818152600b6020908152604091829020825160a0810184528154815260018201546001600160a01b039081169382019390935260028201549092169282019290925260038201546060820152600482015460ff161515608082015286519293509091869086908110610fe057634e487b7160e01b600052603260045260246000fd5b6020908102919091010152610ff6600185611eab565b93505050808061100590611f55565b915050610f47565b50909392505050565b6000818152600260205260409020546001600160a01b03166110755760405162461bcd60e51b8152602060048201526018602482015277115490cdcc8c4e881a5b9d985b1a59081d1bdad95b88125160421b6044820152606401610593565b50565b600081815260046020526040902080546001600160a01b0319166001600160a01b03841690811790915581906110ad826108da565b6001600160a01b03167f8c5be1e5ebec7d5bd14f71427d1e84f3dd0314c0f7b2291e5b200ac8c7c3b92560405160405180910390a45050565b6000806110f2836108da565b9050806001600160a01b0316846001600160a01b0316148061113957506001600160a01b0380821660009081526005602090815260408083209388168352929052205460ff165b80610e505750836001600160a01b0316611152846104f7565b6001600160a01b031614949350505050565b826001600160a01b0316611177826108da565b6001600160a01b0316146111db5760405162461bcd60e51b815260206004820152602560248201527f4552433732313a207472616e736665722066726f6d20696e636f72726563742060448201526437bbb732b960d91b6064820152608401610593565b6001600160a01b03821661123d5760405162461bcd60e51b8152602060048201526024808201527f4552433732313a207472616e7366657220746f20746865207a65726f206164646044820152637265737360e01b6064820152608401610593565b611248600082611078565b6001600160a01b0383166000908152600360205260408120805460019290611271908490611ed7565b90915550506001600160a01b038216600090815260036020526040812080546001929061129f908490611eab565b909155505060008181526002602052604080822080546001600160a01b0319166001600160a01b0386811691821790925591518493918716917fddf252ad1be2c89b69c2b068fc378daa952ba7f163c4a11628f55a4df523b3ef91a4505050565b610ca18282604051806020016040528060008152506115c6565b6000828152600260205260409020546001600160a01b03166113955760405162461bcd60e51b815260206004820152602e60248201527f45524337323155524953746f726167653a2055524920736574206f66206e6f6e60448201526d32bc34b9ba32b73a103a37b5b2b760911b6064820152608401610593565b6000828152600660209081526040909120825161063492840190611990565b6040805160a081018252838152306020808301828152338486018181526060860188815260016080880181815260008c8152600b9097529890952096518755925193860180546001600160a01b039586166001600160a01b03199182161790915590516002870180549190951691161790925551600384015592516004909201805492151560ff1990931692909217909155610ca1919084611164565b816001600160a01b0316836001600160a01b031614156114b35760405162461bcd60e51b815260206004820152601960248201527f4552433732313a20617070726f766520746f2063616c6c6572000000000000006044820152606401610593565b6001600160a01b03838116600081815260056020908152604080832094871680845294825291829020805460ff191686151590811790915591519182527f17307eab39ab6107e8899845ad3d59bd9653f200f220920489ca2b5937696c31910160405180910390a3505050565b61152b848484611164565b611537848484846115f9565b610c905760405162461bcd60e51b815260040161059390611dfd565b606061155e82611016565b600061157560408051602081019091526000815290565b905060008151116115955760405180602001604052806000815250610ac9565b8061159f84611706565b6040516020016115b0929190611d30565b6040516020818303038152906040529392505050565b6115d08383611820565b6115dd60008484846115f9565b6106345760405162461bcd60e51b815260040161059390611dfd565b60006001600160a01b0384163b156116fb57604051630a85bd0160e11b81526001600160a01b0385169063150b7a029061163d903390899088908890600401611d5f565b602060405180830381600087803b15801561165757600080fd5b505af1925050508015611687575060408051601f3d908101601f1916820190925261168491810190611c3a565b60015b6116e1573d8080156116b5576040519150601f19603f3d011682016040523d82523d6000602084013e6116ba565b606091505b5080516116d95760405162461bcd60e51b815260040161059390611dfd565b805181602001fd5b6001600160e01b031916630a85bd0160e11b149050610e50565b506001949350505050565b60608161172a5750506040805180820190915260018152600360fc1b602082015290565b8160005b8115611754578061173e81611f55565b915061174d9050600a83611ec3565b915061172e565b60008167ffffffffffffffff81111561177d57634e487b7160e01b600052604160045260246000fd5b6040519080825280601f01601f1916602001820160405280156117a7576020820181803683370190505b5090505b8415610e50576117bc600183611ed7565b91506117c9600a86611f70565b6117d4906030611eab565b60f81b8183815181106117f757634e487b7160e01b600052603260045260246000fd5b60200101906001600160f81b031916908160001a905350611819600a86611ec3565b94506117ab565b6001600160a01b0382166118765760405162461bcd60e51b815260206004820181905260248201527f4552433732313a206d696e7420746f20746865207a65726f20616464726573736044820152606401610593565b6000818152600260205260409020546001600160a01b0316156118db5760405162461bcd60e51b815260206004820152601c60248201527f4552433732313a20746f6b656e20616c7265616479206d696e746564000000006044820152606401610593565b6001600160a01b0382166000908152600360205260408120805460019290611904908490611eab565b909155505060008181526002602052604080822080546001600160a01b0319166001600160a01b03861690811790915590518392907fddf252ad1be2c89b69c2b068fc378daa952ba7f163c4a11628f55a4df523b3ef908290a45050565b6040805160a08101825260008082526020820181905291810182905260608101829052608081019190915290565b82805461199c90611f1a565b90600052602060002090601f0160209004810192826119be5760008555611a04565b82601f106119d757805160ff1916838001178555611a04565b82800160010185558215611a04579182015b82811115611a045782518255916020019190600101906119e9565b50611a10929150611a14565b5090565b5b80821115611a105760008155600101611a15565b600067ffffffffffffffff80841115611a4457611a44611fb0565b604051601f8501601f19908116603f01168101908282118183101715611a6c57611a6c611fb0565b81604052809350858152868686011115611a8557600080fd5b858560208301376000602087830101525050509392505050565b80356001600160a01b0381168114611ab657600080fd5b919050565b600060208284031215611acc578081fd5b610ac982611a9f565b60008060408385031215611ae7578081fd5b611af083611a9f565b9150611afe60208401611a9f565b90509250929050565b600080600060608486031215611b1b578081fd5b611b2484611a9f565b9250611b3260208501611a9f565b9150604084013590509250925092565b60008060008060808587031215611b57578081fd5b611b6085611a9f565b9350611b6e60208601611a9f565b925060408501359150606085013567ffffffffffffffff811115611b90578182fd5b8501601f81018713611ba0578182fd5b611baf87823560208401611a29565b91505092959194509250565b60008060408385031215611bcd578182fd5b611bd683611a9f565b915060208301358015158114611bea578182fd5b809150509250929050565b60008060408385031215611c07578182fd5b611c1083611a9f565b946020939093013593505050565b600060208284031215611c2f578081fd5b8135610ac981611fc6565b600060208284031215611c4b578081fd5b8151610ac981611fc6565b60008060408385031215611c68578182fd5b823567ffffffffffffffff811115611c7e578283fd5b8301601f81018513611c8e578283fd5b611c9d85823560208401611a29565b95602094909401359450505050565b600060208284031215611cbd578081fd5b5035919050565b60008151808452611cdc816020860160208601611eee565b601f01601f19169290920160200192915050565b805182526020808201516001600160a01b039081169184019190915260408083015190911690830152606080820151908301526080908101511515910152565b60008351611d42818460208801611eee565b835190830190611d56818360208801611eee565b01949350505050565b6001600160a01b0385811682528416602082015260408101839052608060608201819052600090611d9290830184611cc4565b9695505050505050565b6020808252825182820181905260009190848201906040850190845b81811015611dde57611dcb838551611cf0565b9284019260a09290920191600101611db8565b50909695505050505050565b602081526000610ac96020830184611cc4565b60208082526032908201527f4552433732313a207472616e7366657220746f206e6f6e20455243373231526560408201527131b2b4bb32b91034b6b83632b6b2b73a32b960711b606082015260800190565b6020808252602e908201527f4552433732313a2063616c6c6572206973206e6f7420746f6b656e206f776e6560408201526d1c881b9bdc88185c1c1c9bdd995960921b606082015260800190565b60a0810161045f8284611cf0565b60008219821115611ebe57611ebe611f84565b500190565b600082611ed257611ed2611f9a565b500490565b600082821015611ee957611ee9611f84565b500390565b60005b83811015611f09578181015183820152602001611ef1565b83811115610c905750506000910152565b600181811c90821680611f2e57607f821691505b60208210811415611f4f57634e487b7160e01b600052602260045260246000fd5b50919050565b6000600019821415611f6957611f69611f84565b5060010190565b600082611f7f57611f7f611f9a565b500690565b634e487b7160e01b600052601160045260246000fd5b634e487b7160e01b600052601260045260246000fd5b634e487b7160e01b600052604160045260246000fd5b6001600160e01b03198116811461107557600080fdfea2646970667358221220758853cbbca9d0103cdc618603656f3aba5431482a6638fbc7b2f14136aaff0964736f6c63430008040033",
  "linkReferences": {},
  "deployedLinkReferences": {}
}